:100000000C9434000C9451000C9451000C94510049
:100010000C9451000C9451000C9451000C9451001C
:100020000C9451000C9451000C9451000C9451000C
:100030000C9451000C9451000C9451000C945100FC
:100040000C9451000C9451000C9451000C945100EC
:100050000C9451000C9451000C9451000C945100DC
:100060000C9451000C94510011241FBECFEFD8E026
:10007000DEBFCDBF12E0A0E0B1E0EAE1FFE002C0E8
:1000800005900D92A434B107D9F722E0A4E4B2E0C0
:1000900001C01D92AE34B207E1F70E949A000C94A1
:1000A0008B070C940000439887EC90E00197F1F7E0
:1000B00000C00000439AE7ECF0E03197F1F700C090
:1000C0000000449820E130E080E090E0880F991F24
:1000D00035998160429AE7ECF0E03197F1F700C082
:1000E00000004298E7ECF0E03197F1F700C0000023
:1000F0002150310959F7449A08955D9820E130E084
:10010000992314F45F9A01C05F98880F991F5E9A33
:10011000E7ECF0E03197F1F700C000005E98E7EC03
:10012000F0E03197F1F700C000002150310941F7AC
:100130005D9A0895CF93DF9300D000D0CDB7DEB79E
:100140000E94430386E091E090934B0280934A0221
:100150000E94D0016C018CE187B980EE8AB980E001
:1001600090E00E947D0004C084E291E00E9493042C
:100170000E945300892BC1F71A821982712C00E06A
:1001800010E01C821B820F2EF8E76F2EF02D0F2E31
:10019000F6E3EF2EF1E0FF2EF02D55245394882442
:1001A0008394912C0F2EFBEA3F2EF02D412C06C09C
:1001B0000B811C810F2EFFE66F2EF02D7720A1F012
:1001C0008B819C818017910709F4742C0E94530045
:1001D0009C838B839FEF23EC89E0915020408040EB
:1001E000E1F700C00000EACFC6010E940E02A62C73
:1001F000B12C1F926F92FF92EF920E947D048DE4CA
:1002000091E00E9493040F900F900F900F908B81BC
:100210009C818017910791F40E9453009C838B83EB
:100220009FEF23EC89E0915020408040E1F700C02F
:1002300000008B819C810817190771F36B817C8109
:10024000C8010E949E02282E9BE0891761F02CE0D5
:10025000821779F08AE0281212C083E691E00E94AA
:100260009304752CABCF8CE791E00E949304752C1E
:10027000A5CF89EC91E00E949304752C9FCF9FEF4E
:1002800023EC89E0915020408040E1F700C000005D
:10029000C401022C02C0880F991F0A94E2F70E9441
:1002A0007D009FEF29E688E1915020408040E1F7F2
:1002B00000C0000080E090E00E947D00239C412D62
:1002C00011244695842F880F840F222D281B662D1C
:1002D000C6010E94F202662DC6010E940B038C012A
:1002E000892B69F0BF92AF9283EF91E09F938F9338
:1002F0000E947D040F900F900F900F9017C08B817C
:100300009C81809590959170892B59F484E192E0BD
:100310009F938F930E947D040F900F900FEF11E039
:1003200005C089819A81009781F18C01C6010E94E4
:100330000E0219C0C8010E947D009FEF25EA8EE0E1
:10034000915020408040E1F700C0000080E090E044
:100350000E947D009FEF25EA8EE091502040804072
:10036000E1F700C000000E945300892B19F7C60175
:100370000E94FA011A83098300E010E01C821B82AC
:100380000F2EF8E76F2EF02D19CF98E7691609F4B4
:100390000FCF0B811C810F2EF8E76F2EF02D0ECFA3
:1003A000CF92DF92EF92FF920F931F93CF9386E04D
:1003B00090E00E9457036C018C017C0186E0E80EFE
:1003C000F11CCDE283E090E00E945703FC01D801CC
:1003D0008D939D938D01C083C183C283AE15BF05EC
:1003E00089F7C601CF911F910F91FF90EF90DF9099
:1003F000CF900895FC019C012A5F3F4F8DE2A081C0
:10040000B1818C93A081B18111968C93A191B1910E
:1004100012968C932E173F0791F70895AF92BF92D3
:10042000CF92DF92EF92FF920F931F93CF93DF93C0
:10043000D82FC92F84E392E00E949304ED2EFC2E66
:10044000CC24C394D12C0F2EFCE3AF2EF2E0BF2EB0
:10045000F02D00E412E0DF92CF92BF92AF920E94A3
:100460007D040F900F900F900F90C0E0D0E0D70167
:10047000ED91FC91EC0FFD1F80811F928F931F93D4
:100480000F930E947D0421960F900F900F900F9074
:10049000C330D10561F781E691E00E949304BFEF7C
:1004A000CB1ADB0A82E0E80EF11CA4E0CA16D104E4
:1004B00091F6DF91CF911F910F91FF90EF90DF9018
:1004C000CF90BF90AF900895EF92FF920F931F933C
:1004D000CF93DF93683711F06F3651F4C82FD92FBF
:1004E000A0E0B0E000E010E0EE24E394F12C17C0AF
:1004F0000E9478049191691309C0C701022E02C0BD
:10050000880F991F0A94E2F7082B192B2F5F3F4F92
:10051000E417F50779F71396A930B10539F0499139
:100520005991FA014D5F5F4F9D01E4CFC801DF9102
:10053000CF911F910F91FF90EF900895AF92BF92CE
:10054000CF92DF92EF92FF920F931F93CF93DF939F
:100550008C017B0186179707A9F1C0E0D0E073E01A
:1005600080E0A12CB12CCC24C394D12C61E025C017
:100570009601042E02C0220F331F0A94E2F7F801FD
:10058000E223F323D701A223B3232A173B0741F425
:100590002E173F0741F0811117C0A92E862F03C0E7
:1005A0002E173F0799F04F5F5F4F9F5F7913E0CFA2
:1005B0007D5F2396C930D10519F09C2FAE01D8CFAD
:1005C0008A2D05C08AE003C08BE001C08CE0DF917A
:1005D000CF911F910F91FF90EF90DF90CF90BF9040
:1005E000AF900895433010F4233010F00E94780447
:1005F000683721F06F3611F00E94780450E0440F04
:10060000551FFC01E40FF51F0190F081E02DE20F72
:10061000F11D60830895CF93DF93CDB7DEB7609768
:100620000FB6F894DEBF0FBECDBF20E1E4E1F1E0EC
:10063000DE01119601900D922A95E1F70E94640265
:10064000AC0129813A81822393232817390791F03D
:10065000FE013396BE016F5E7F4F21913191CA0139
:10066000822393232817390729F0E617F707A9F7FC
:1006700080E090E060960FB6F894DEBF0FBECDBF6D
:10068000DF91CF9108951092C50087E68093C40052
:1006900088E08093C10086E08093C2000895E0EC7A
:1006A000F0E0908195FFFDCF8093C60008950F93F1
:1006B0001F93CF93DF938230910510F482E090E096
:1006C000E0914602F091470220E030E0A0E0B0E087
:1006D000309719F1408151810281138148175907E0
:1006E000C8F08417950769F4109731F012960C93AF
:1006F000129713961C9327C000934602109347024B
:1007000022C02115310519F04217530718F49A0138
:10071000BD01EF01DF01F801DBCF21153105F9F053
:10072000281B390B2430310580F48A819B816115A7
:10073000710521F0FB019383828304C090934702EB
:1007400080934602FE01329644C0FE01E20FF31F81
:100750008193919322503109398328833AC02091A3
:10076000440230914502232B41F420910201309143
:1007700003013093450220934402209100013091FF
:1007800001012115310541F42DB73EB74091040117
:1007900050910501241B350BE0914402F091450274
:1007A000E217F307A0F42E1B3F0B2817390778F048
:1007B000AC014E5F5F4F2417350748F04E0F5F1FA7
:1007C00050934502409344028193919302C0E0E02C
:1007D000F0E0CF01DF91CF911F910F910895CF935A
:1007E000DF93009709F481C0FC01329713821282D3
:1007F000A0914602B0914702109781F42081318187
:10080000820F931F20914402309145022817390727
:1008100051F5F0934502E093440267C0ED0120E0FA
:1008200030E0CE17DF0740F44A815B819E0141151D
:100830005105F1F0EA01F5CFD383C28340815181A4
:10084000840F951FC817D90759F488819981840F9F
:10085000951F0296918380838A819B8193838283F3
:100860002115310529F4F0934702E09346023DC07B
:10087000E901FB83EA8349915991C40FD51FEC1715
:10088000FD0761F480819181840F951F0296E90133
:1008900099838883828193819B838A83E0E0F0E05F
:1008A00012968D919C911397009719F0FD01DC0130
:1008B000F7CF8D919C9111979D012E5F3F4F820F35
:1008C000931F20914402309145022817390769F49B
:1008D000309729F4109247021092460202C0138208
:1008E0001282B0934502A0934402DF91CF91089504
:1008F00081E090E0F8940C948B07A0E0B0E0E3E88E
:10090000F4E00C946407AE014B5F5F4FFA01619114
:100910007191AF0180914A0290914B020E94C304F1
:10092000E2E00C9480070F931F93CF93DF93E09145
:100930004A02F0914B02238121FF1BC08C01D0E0C1
:10094000C0E0F80181918F0160914A0270914B02E1
:10095000DB011896ED91FC911997882331F00995E8
:10096000892B79F3DFEFCFEFECCF8AE00995892B64
:1009700019F08FEF9FEF02C08D2F9C2FDF91CF9149
:100980001F910F910895ABE0B0E0E9ECF4E00C9416
:1009900054076C017B018A01FC0117821682838156
:1009A00081FFCCC1CE0101963C01F6019381F70194
:1009B00093FD859193FF81917F01882309F4BAC14A
:1009C000853239F493FD859193FF81917F018532C2
:1009D00029F4B60190E00E94BA06E7CF912C212CB1
:1009E000312CFFE1F315D8F08B3279F038F48032F6
:1009F00079F08332A1F4232D20611DC08D3261F086
:100A0000803369F4232D216016C0832D8260382E37
:100A1000E32DE4603E2E2AC0F32DF8601DC037FCA4
:100A20002DC020ED280F2A3040F08E32B9F436FC6C
:100A300081C1232D2064322E19C036FE06C08AE003
:100A4000989E200D1124922E11C0EAE02E9E200DBA
:100A50001124222EF32DF0623F2E08C08C3621F493
:100A6000832D8068382E02C0883641F4F70193FD4B
:100A7000859193FF81917F018111B3CF982F9F7D45
:100A80009554933028F40C5F1F4F9FE399830DC05A
:100A9000833631F0833771F0833509F059C021C0B6
:100AA000F801808189830E5F1F4F88248394912CE5
:100AB000530113C02801F2E04F0E511CF801A08031
:100AC000B18036FE03C0692D70E002C06FEF7FEF8A
:100AD000C5010E94AF064C018201F32DFF773F2E26
:100AE00016C0280122E0420E511CF801A080B180FE
:100AF00036FE03C0692D70E002C06FEF7FEFC501C5
:100B00000E94A4064C01F32DF0683F2E820133FCB5
:100B10001BC0822D90E088169906B0F4B60180E2E1
:100B200090E00E94BA062A94F4CFF50137FC859133
:100B300037FE81915F01B60190E00E94BA06211054
:100B40002A9421E0821A91088114910471F7E8C077
:100B5000843611F0893641F5F80137FE07C060810F
:100B60007181828193810C5F1F4F08C06081718108
:100B7000072E000C880B990B0E5F1F4FF32DFF768D
:100B80003F2E97FF09C090958095709561957F4F96
:100B90008F4F9F4FF0683F2E2AE030E0A3010E9464
:100BA000F606882E861845C0853731F4232D2F7E12
:100BB000B22E2AE030E025C0932D997FB92E8F36D2
:100BC000C1F018F4883579F0B5C0803719F088374E
:100BD00021F0B0C0E92FE061BE2EB4FE0DC0FB2DA8
:100BE000F460BF2E09C034FE0AC0292F2660B22E41
:100BF00006C028E030E005C020E130E002C020E17E
:100C000032E0F801B7FE07C0608171818281938173
:100C10000C5F1F4F06C06081718180E090E00E5F25
:100C20001F4FA3010E94F606882E8618FB2DFF7722
:100C30003F2E36FE0DC0232D2E7FA22E891458F490
:100C400034FE0BC032FC09C0832D8E7EA82E05C059
:100C5000B82CA32C03C0B82C01C0B92CA4FE0FC023
:100C6000FE01E80DF11D8081803321F49A2D997EDB
:100C7000A92E09C0A2FE06C0B394B39404C08A2D65
:100C8000867809F0B394A3FC11C0A0FE06C0B2148C
:100C900088F4280C922C9B180EC0B21460F4B60194
:100CA00080E290E00E94BA06B394F7CFB21418F431
:100CB0002B1802C0982C212CA4FE10C0B60180E392
:100CC00090E00E94BA06A2FE17C0A1FC03C088E70C
:100CD00090E002C088E590E0B6010CC08A2D8678CD
:100CE00059F0A1FE02C08BE201C080E2A7FC8DE2B8
:100CF000B60190E00E94BA06891438F4B60180E388
:100D000090E00E94BA069A94F7CF8A94F301E80D16
:100D1000F11D8081B60190E00E94BA068110F5CFE6
:100D2000222009F442CEB60180E290E00E94BA0689
:100D30002A94F6CFF6018681978102C08FEF9FEF4C
:100D40002B96E2E10C947007FC0105906150704015
:100D50000110D8F7809590958E0F9F1F0895FC0184
:100D60006150704001900110D8F7809590958E0FDA
:100D70009F1F08950F931F93CF93DF93FB01238150
:100D800021FD03C08FEF9FEF2CC022FF16C04681CC
:100D90005781248135814217530744F4A081B181E2
:100DA0009D012F5F3F4F318320838C9326813781B4
:100DB0002F5F3F4F3783268314C08B01EC01FB016B
:100DC0000084F185E02D0995892BE1F6D80116966E
:100DD0008D919C911797019617969C938E931697D9
:100DE000CE01DF91CF911F910F910895FA01AA27AB
:100DF000283051F1203181F1E8946F936E7F6E5F5E
:100E00007F4F8F4F9F4FAF4FB1E03ED0B4E03CD00B
:100E1000670F781F891F9A1FA11D680F791F8A1FEE
:100E2000911DA11D6A0F711D811D911DA11D20D055
:100E300009F468943F912AE0269F11243019305D0F
:100E40003193DEF6CF010895462F4770405D419300
:100E5000B3E00FD0C9F7F6CF462F4F70405D4A334D
:100E600018F0495D31FD4052419302D0A9F7EACF15
:100E7000B4E0A6959795879577956795BA95C9F744
:100E800000976105710508959B01AC010A2E069437
:100E90005795479537952795BA95C9F7620F731FF0
:100EA000841F951FA01D08952F923F924F925F922D
:100EB0006F927F928F929F92AF92BF92CF92DF926A
:100EC000EF92FF920F931F93CF93DF93CDB7DEB7CF
:100ED000CA1BDB0B0FB6F894DEBF0FBECDBF099463
:100EE0002A88398848885F846E847D848C849B84BA
:100EF000AA84B984C884DF80EE80FD800C811B81C8
:100F0000AA81B981CE0FD11D0FB6F894DEBF0FBEF6
:0A0F1000CDBFED010895F894FFCF66
:100F1A0000004E02200000000002000000004F0303
:100F2A0000000000C00138000700240192004900B7
:100F3A0054001101436C6561722074686520626F08
:100F4A006172642E0D000D0A43757272656E74200B
:100F5A00706C617965723A2025630D0A00576169E0
:100F6A0074696E6720666F7220696E7075742E2EB2
:100F7A002E0D00537061636520616C72656164793E
:100F8A00206F636375706965642E0D00506C61791A
:100F9A006572207075742074776F206F72206D6F80
:100FAA00726520706965636573206F6E20617420B5
:100FBA006F6E63652E2052656D6F76652074686F5B
:100FCA0073652070696563657320616E642074724D
:100FDA007920616761696E0D00506C6179657220D4
:100FEA0072656D6F76656420612070696563652E30
:100FFA0020507574206974206261636B2062727577
:10100A00680D0025632077696E732E205072657310
:10101A007320636C6561722074686520626F617207
:10102A00640D0A00447261772E20506C6561736505
:10103A0020636C6561722074686520626F617264F6
:10104A000D0A2E002041204220430D002564200075
:04105A0025632000EA
:00000001FF
