S0120000535049373448433539352E737265638D
S11300000C9434000C9451000C9451000C94510045
S11300100C9451000C9451000C9451000C94510018
S11300200C9451000C9451000C9451000C94510008
S11300300C9451000C9451000C9451000C945100F8
S11300400C9451000C9451000C9451000C945100E8
S11300500C9451000C9451000C9451000C945100D8
S11300600C9451000C94510011241FBECFEFD8E022
S1130070DEBFCDBF11E0A0E0B1E0E4E8F1E002C0F2
S113008005900D92AE30B107D9F721E0AEE0B1E0B2
S113009001C01D92A731B207E1F70E9484000C94BD
S11300A0C0000C940000E0ECF0E0908195FFFDCFDF
S11300B08093C60008951092C50087E68093C4001B
S11300C088E08093C10086E08093C200089528E010
S11300D030E0330F99230CF43160880F991F2150BD
S11300E0C1F728E040E0440F99230CF44160880FE5
S11300F0991F2150C1F73EBD0DB407FEFDCF4EBD83
S11301000DB407FEFDCF089584E084B90E945B001E
S113011080E091E0909314018093130180ED8CBDF5
S113012082E087B984B1886284B9C1E0D0E080916B
S11301301001893010F010921001809110019E017D
S113014002C0220F331F8A95E2F730930F012093E8
S11301500E01809110018F5F809310013FEF83ECBB
S113016099E0315080409040E1F700C00000419890
S113017080910E0190910F010E946700419AD7CFA0
S1070180F894FFCF1D
S1110184000000020000000053000000000014
S9030000FC
